{
  "contractName": "Bank",
  "abi": [
    {
      "anonymous": false,
      "inputs": [
        {
          "indexed": false,
          "internalType": "uint256",
          "name": "_amount",
          "type": "uint256"
        },
        {
          "indexed": false,
          "internalType": "address",
          "name": "_sender",
          "type": "address"
        }
      ],
      "name": "eventAddFunds",
      "type": "event"
    },
    {
      "anonymous": false,
      "inputs": [
        {
          "indexed": false,
          "internalType": "uint256",
          "name": "_amount",
          "type": "uint256"
        },
        {
          "indexed": false,
          "internalType": "address",
          "name": "_to",
          "type": "address"
        }
      ],
      "name": "eventTransferFunds",
      "type": "event"
    },
    {
      "stateMutability": "payable",
      "type": "fallback",
      "payable": true
    },
    {
      "inputs": [
        {
          "internalType": "address",
          "name": "",
          "type": "address"
        }
      ],
      "name": "balances",
      "outputs": [
        {
          "internalType": "uint256",
          "name": "",
          "type": "uint256"
        }
      ],
      "stateMutability": "view",
      "type": "function",
      "constant": true
    },
    {
      "inputs": [],
      "name": "totalBalance",
      "outputs": [
        {
          "internalType": "uint256",
          "name": "",
          "type": "uint256"
        }
      ],
      "stateMutability": "view",
      "type": "function",
      "constant": true
    },
    {
      "stateMutability": "payable",
      "type": "receive",
      "payable": true
    },
    {
      "inputs": [],
      "name": "getTotalBalances",
      "outputs": [
        {
          "internalType": "uint256",
          "name": "",
          "type": "uint256"
        }
      ],
      "stateMutability": "view",
      "type": "function",
      "constant": true
    },
    {
      "inputs": [
        {
          "internalType": "address",
          "name": "_address",
          "type": "address"
        }
      ],
      "name": "getBalanceOf",
      "outputs": [
        {
          "internalType": "uint256",
          "name": "",
          "type": "uint256"
        }
      ],
      "stateMutability": "view",
      "type": "function",
      "constant": true
    },
    {
      "inputs": [],
      "name": "addFunds",
      "outputs": [],
      "stateMutability": "payable",
      "type": "function",
      "payable": true
    },
    {
      "inputs": [
        {
          "internalType": "uint256",
          "name": "_amount",
          "type": "uint256"
        }
      ],
      "name": "withdrawFunds",
      "outputs": [],
      "stateMutability": "payable",
      "type": "function",
      "payable": true
    },
    {
      "inputs": [],
      "name": "withdrawAllFunds",
      "outputs": [],
      "stateMutability": "nonpayable",
      "type": "function"
    },
    {
      "inputs": [
        {
          "internalType": "uint256",
          "name": "_amount",
          "type": "uint256"
        },
        {
          "internalType": "address",
          "name": "_to",
          "type": "address"
        }
      ],
      "name": "transferTo",
      "outputs": [],
      "stateMutability": "payable",
      "type": "function",
      "payable": true
    }
  ],
  "bytecode": "0x608060405234801561001057600080fd5b50610bf6806100206000396000f3fe60806040526004361061007f5760003560e01c80639b96eece1161004e5780639b96eece14610133578063a26759cb14610170578063ad7a672f1461017a578063d4822fbf146101a55761008e565b8063155dd5ee1461009857806327e235e3146100b45780632baf57d3146100f157806349649fbf1461011c5761008e565b3661008e5761008c6101c1565b005b6100966101c1565b005b6100b260048036038101906100ad9190610832565b6102ef565b005b3480156100c057600080fd5b506100db60048036038101906100d691906108bd565b610445565b6040516100e891906108f9565b60405180910390f35b3480156100fd57600080fd5b5061010661045d565b60405161011391906108f9565b60405180910390f35b34801561012857600080fd5b50610131610467565b005b34801561013f57600080fd5b5061015a600480360381019061015591906108bd565b610502565b60405161016791906108f9565b60405180910390f35b6101786101c1565b005b34801561018657600080fd5b5061018f61054a565b60405161019c91906108f9565b60405180910390f35b6101bf60048036038101906101ba9190610914565b610550565b005b3460008111610205576040517f08c379a00000000000000000000000000000000000000000000000000000000081526004016101fc906109d7565b60405180910390fd5b610256346000803373ffffffffffffffffffffffffffffffffffffffff1673ffffffffffffffffffffffffffffffffffffffff168152602001908152602001600020546107cb90919063ffffffff16565b6000803373ffffffffffffffffffffffffffffffffffffffff1673ffffffffffffffffffffffffffffffffffffffff168152602001908152602001600020819055506102ad346001546107cb90919063ffffffff16565b6001819055507f32193ef63276f35fa6fe0187906ebb1cc51dbd8837a8c2428e2a084ff742ef9c34336040516102e4929190610a06565b60405180910390a150565b8060008111610333576040517f08c379a000000000000000000000000000000000000000000000000000000000815260040161032a906109d7565b60405180910390fd5b60008060003373ffffffffffffffffffffffffffffffffffffffff1673ffffffffffffffffffffffffffffffffffffffff16815260200190815260200160002054116103b4576040517f08c379a00000000000000000000000000000000000000000000000000000000081526004016103ab90610a7b565b60405180910390fd5b81806000803373ffffffffffffffffffffffffffffffffffffffff1673ffffffffffffffffffffffffffffffffffffffff168152602001908152602001600020541015610436576040517f08c379a000000000000000000000000000000000000000000000000000000000815260040161042d90610ae7565b60405180910390fd5b6104408333610550565b505050565b60006020528060005260406000206000915090505481565b6000600154905090565b60008060003373ffffffffffffffffffffffffffffffffffffffff1673ffffffffffffffffffffffffffffffffffffffff16815260200190815260200160002054116104e8576040517f08c379a00000000000000000000000000000000000000000000000000000000081526004016104df90610a7b565b60405180910390fd5b60006104f333610502565b90506104ff8133610550565b50565b60008060008373ffffffffffffffffffffffffffffffffffffffff1673ffffffffffffffffffffffffffffffffffffffff168152602001908152602001600020549050919050565b60015481565b8160008111610594576040517f08c379a000000000000000000000000000000000000000000000000000000000815260040161058b906109d7565b60405180910390fd5b60008060003373ffffffffffffffffffffffffffffffffffffffff1673ffffffffffffffffffffffffffffffffffffffff1681526020019081526020016000205411610615576040517f08c379a000000000000000000000000000000000000000000000000000000000815260040161060c90610a7b565b60405180910390fd5b82806000803373ffffffffffffffffffffffffffffffffffffffff1673ffffffffffffffffffffffffffffffffffffffff168152602001908152602001600020541015610697576040517f08c379a000000000000000000000000000000000000000000000000000000000815260040161068e90610ae7565b60405180910390fd5b6106e8846000803373ffffffffffffffffffffffffffffffffffffffff1673ffffffffffffffffffffffffffffffffffffffff168152602001908152602001600020546107e190919063ffffffff16565b6000803373ffffffffffffffffffffffffffffffffffffffff1673ffffffffffffffffffffffffffffffffffffffff1681526020019081526020016000208190555061073f846001546107e190919063ffffffff16565b6001819055508273ffffffffffffffffffffffffffffffffffffffff166108fc859081150290604051600060405180830381858888f1935050505015801561078b573d6000803e3d6000fd5b507ff3f3943b36f75947b414c5c3da8a16ae4c7f3f833b0b65064c52e072e142bd1184846040516107bd929190610a06565b60405180910390a150505050565b600081836107d99190610b36565b905092915050565b600081836107ef9190610b8c565b905092915050565b600080fd5b6000819050919050565b61080f816107fc565b811461081a57600080fd5b50565b60008135905061082c81610806565b92915050565b600060208284031215610848576108476107f7565b5b60006108568482850161081d565b91505092915050565b600073ffffffffffffffffffffffffffffffffffffffff82169050919050565b600061088a8261085f565b9050919050565b61089a8161087f565b81146108a557600080fd5b50565b6000813590506108b781610891565b92915050565b6000602082840312156108d3576108d26107f7565b5b60006108e1848285016108a8565b91505092915050565b6108f3816107fc565b82525050565b600060208201905061090e60008301846108ea565b92915050565b6000806040838503121561092b5761092a6107f7565b5b60006109398582860161081d565b925050602061094a858286016108a8565b9150509250929050565b600082825260208201905092915050565b7f4572726f723a204e6f2073652068612065737461626c656369646f206c61206360008201527f616e746964616420646520666f6e646f73000000000000000000000000000000602082015250565b60006109c1603183610954565b91506109cc82610965565b604082019050919050565b600060208201905081810360008301526109f0816109b4565b9050919050565b610a008161087f565b82525050565b6000604082019050610a1b60008301856108ea565b610a2860208301846109f7565b9392505050565b7f4e6f207469656e657320666f6e646f7300000000000000000000000000000000600082015250565b6000610a65601083610954565b9150610a7082610a2f565b602082019050919050565b60006020820190508181036000830152610a9481610a58565b9050919050565b7f4e6f207469656e657320666f6e646f7320737566696369656e74657300000000600082015250565b6000610ad1601c83610954565b9150610adc82610a9b565b602082019050919050565b60006020820190508181036000830152610b0081610ac4565b9050919050565b7f4e487b7100000000000000000000000000000000000000000000000000000000600052601160045260246000fd5b6000610b41826107fc565b9150610b4c836107fc565b9250827fffffffffffffffffffffffffffffffffffffffffffffffffffffffffffffffff03821115610b8157610b80610b07565b5b828201905092915050565b6000610b97826107fc565b9150610ba2836107fc565b925082821015610bb557610bb4610b07565b5b82820390509291505056fea264697066735822122072a0e1907142688df141524a787c184393cbf77495e86aff78de5c8939bd650564736f6c634300080a0033",
  "immutableReferences": {},
  "source": "// SPDX-License-Identifier: MIT\npragma solidity ^0.8.9;\nimport \"@openzeppelin/contracts/utils/math/SafeMath.sol\";\n\ncontract Bank {\n    using SafeMath for uint256;\n    mapping(address => uint256) public balances;\n    uint256 public totalBalance;\n\n    event eventTransferFunds(uint256 _amount, address _to);\n\n    event eventAddFunds(uint256 _amount, address _sender);\n\n    modifier haveFunds() {\n        require(balances[msg.sender] > 0, \"No tienes fondos\");\n        _;\n    }\n\n    modifier haveFundsAmount(uint256 _amount) {\n        require(\n            balances[msg.sender] >= _amount,\n            \"No tienes fondos suficientes\"\n        );\n        _;\n    }\n\n    modifier amountNotZero(uint256 _amount) {\n        require(\n            _amount > 0,\n            \"Error: No se ha establecido la cantidad de fondos\"\n        );\n        _;\n    }\n\n    function getTotalBalances() public view returns (uint256) {\n        return totalBalance;\n    }\n\n    function getBalanceOf(address _address) public view returns (uint256) {\n        return balances[_address];\n    }\n\n    function addFunds() public payable amountNotZero(msg.value) {\n        balances[msg.sender] = balances[msg.sender].add(msg.value);\n        totalBalance = totalBalance.add(msg.value);\n        emit eventAddFunds(msg.value, msg.sender);\n    }\n\n    function withdrawFunds(uint256 _amount)\n        public\n        payable\n        amountNotZero(_amount)\n        haveFunds\n        haveFundsAmount(_amount)\n    {\n        transferTo(_amount, msg.sender);\n    }\n\n    function withdrawAllFunds() public haveFunds {\n        uint256 balanceUser = getBalanceOf(address(msg.sender));\n        transferTo(balanceUser, address(msg.sender));\n    }\n\n    function transferTo(uint256 _amount, address _to)\n        public\n        payable\n        amountNotZero(_amount)\n        haveFunds\n        haveFundsAmount(_amount)\n    {\n        balances[msg.sender] = balances[msg.sender].sub(_amount);\n\n        totalBalance = totalBalance.sub(_amount);\n        payable(_to).transfer(_amount);\n        emit eventTransferFunds(_amount, _to);\n    }\n\n    fallback() external payable {\n        addFunds();\n    }\n\n    receive() external payable {\n        addFunds();\n    }\n}\n",
  "sourcePath": "C:\\Users\\Axel\\Desktop\\bankBlockchain\\smartContract\\contracts\\Bank.sol",
  "compiler": {
    "name": "solc",
    "version": "0.8.10+commit.fc410830.Emscripten.clang"
  },
  "schemaVersion": "3.4.3",
  "updatedAt": "2022-05-28T15:21:49.769Z",
  "networkType": "ethereum",
  "devdoc": {
    "kind": "dev",
    "methods": {},
    "version": 1
  },
  "userdoc": {
    "kind": "user",
    "methods": {},
    "version": 1
  }
}